:100000006F00D064000000005E0C0000600C000077
:1000100000000000000000000000000000000000E0
:1000200000000000000000000000000000000000D0
:10003000AE020000000000004A0E000000000000B8
:100040004A0E00004A0E00004A0E00004A0E000050
:100050004A0E00004A0E00004A0E00004A0E000040
:100060004A0E00004A0E00004A0E00004A0E000030
:100070004A0E00004A0E00004A0E00004A0E000020
:10008000280400004A0E00004A0E0000C4030000CD
:100090004A0E00004A0E00004A0E00000000000058
:1000A000511126C022C206C4828282441244A24058
:1000B00031018280634E050263C305042E86AA8542
:1000C0007D5515C285466378B6006356C0000606A6
:1000D0008606E36CB6FE014563E4C500918D558D3F
:1000E00085820582F5FA82808682C93F2E858282CA
:1000F0003305A04063D70500B305B040C1B7B305D1
:10010000B0408682653F3305A0408282868263C705
:100110000500634905005D372E858282B305B04036
:10012000E35B05FE3305A040513F3305B0408282BA
:100130000000EFF2FFF61301C1FD85451305002114
:10014000EF108018C1478A85371501407C8002C4B2
:10015000EF00F07C37240140B7070E003ECC6C0066
:100160008547130504402300F10202C602C802CAF3
:1001700002CEEF0030589D460546894513050440E0
:10018000EF007060854513050440EF00905B130598
:100190000440EF00105C930404402685EF00105CDF
:1001A0006DFD13050440EF00F05B13014102F5BD46
:1001B000EFF21FEF37250140854513050540372431
:1001C0000140EF00D05A9304044089452685EF0092
:1001D000B06765DD13050440EF009066F9B5EFF2F6
:1001E0003FEC2A862388A180914537150140EF0016
:1001F000507B65BD03C501818280EFF27FEA7111FA
:10020000374400082AC0EF00D064130504C0EF0093
:10021000506A8245130504C0EF00306DEF00106591
:10022000110161B5B747000803C507C01307D00F18
:100230001375F50F9307F5FF93F7F70F6373F70047
:1002400001458280EFF2DFE5B7F7FF1F83A6877EC7
:1002500003A7C77E9387418113D68601C18294B3D9
:1002600093568701418390A3B4A3B8B3653FA38895
:10027000A18025BDEFF2DFE251452128B707EFBE8F
:1002800037E700E0938707083CC705B503A58181E0
:100290008280138781811843938781813A9598439F
:1002A0003307E5406343E00082800100CDBFB7F72C
:1002B00000E023A20700938781819843050798C334
:1002C00073002030EFF2DFDDEF007031B707002060
:1002D00003A587019305803ED533B7F700E07D1570
:1002E00088CB23A407003D4798C323A207009307A8
:1002F000800873A00730B7E700E0056723A0E71088
:100300006DB3EFF2FFD911651301C1FD85451305EA
:10031000050202C402C602C802CA02CC02CE02D042
:10032000EF00907A370701405C43B70600013714AD
:100330000140D58F5CC38D47930400023EC62C005C
:10034000E1471305044064843EC8EF00505D930705
:1003500000047C842C009147130504403EC8EF0044
:10036000105C956737440140938707B04C083ECA3C
:1003700013050480B7070C003ECE02CC2310010207
:10038000EF1060000A856480854426C223010100C5
:10039000EF003062930730120A857C8026C2230169
:1003A0000100EF00106105461305048093055052CB
:1003B000EF10800B854513050480EF1080091301B1
:1003C0004102E5B1130141FD22CC373401402ACA74
:1003D0002EC8130504C0854506D416D21AD01ECEE9
:1003E00032C636C43AC23EC0EF00B07719CD85455B
:1003F000130504C0EF007078238101848145130543
:1004000004C0238E0180EF00F0726244A250925229
:100410000253F2435245C2453246A2461247824732
:100420001301C10273002030797122CE374401409C
:100430002ACA2EC8130504809305505206D616D436
:100440001AD21ED026CC32C636C43AC23EC0EF10F5
:10045000A00641CD253D23A2A18413050480EF1001
:100460008004138721841823AA8481451377F70F0A
:1004700041EF37340140130504C0EF00506E85454D
:10048000130504C0EF00106B938721849823FD4669
:100490001384C18163E0E6049823138601821377F5
:1004A000F70F9306170093F6F60F94A3329793F481
:1004B000F40F04A398238D4593860182639DE50480
:1004C00038221306000215071377F70F18A018201B
:1004D0006373E60437350140238007008145130527
:1004E00005C023000400EF00F0647244B250A25231
:1004F00012538253E2445245C2453246A246124745
:10050000824745617300203037350140130505C02F
:10051000EF00F06495BF18201377F70F79D7902379
:1005200018201377F70FE312C7FC182013850182F8
:1005300079173697102318207D17369704230C203F
:10054000A204F91593F5F50FD18C4522938601820B
:1005500093872184639DA40490229385C18413769C
:10056000F60F2386C18490321387C1846D451376BC
:10057000F60F90B1B0221376F60FB0A1814530236B
:1005800013F3F50F6374C3006397A50066AF854648
:100590002384D18481B71386350036961022330325
:1005A000B70085051376F60FA301C300C9BF938674
:1005B00001849A220507420741839AA221BFEFF2E4
:1005C0003FAE511185454145EF00105085477C8075
:1005D000C1473EC48A858D47371501403EC2EF00B2
:1005E0001034854537150140EF00703B310175BC73
:1005F000EFF21FAB854537150140EF00103A75B497
:10060000EFF21FAA854537150140EF00503971BC44
:10061000EFF21FA92A840565511185451305058050
:10062000EF00904AEF00A07BB707002003A58701E9
:100630009305803E61347D154205418111E00544FA
:100640007D1460823734014068808A85130504C0B8
:10065000231101002313010023040100EF00B0481F
:10066000130504C08545EF0050510546130504C02D
:100670008545EF00B04D8145130504C0EF00904B58
:10068000B7E700E0214723A2E710310139BCEFF2C0
:100690003FA10945B53F11BCEFF29FA0374501408E
:1006A0009305000213050580EF007060854719E58A
:1006B00083C7218493F7F70FB337F0003E85F5B277
:1006C000EFF21F9E03A44184B707002083A4070014
:1006D000753E33048540014563679400753F1345BB
:1006E00015001375F50F0589C9B2C1676976814692
:1006F000FD17050613F7F60F6364B7003E85828089
:100700003307D5001823B98F214793F2170013D36D
:100710001700B287639302008147B347F3007D1748
:10072000C2071377F70FC1836DF38506E1B7EFF2C8
:100730003F971E21202139717C80AA8440818D47FA
:100740001387D7FF1377F70F63648704930534008B
:1007500093F5F50F0A85513F9C003E94A301A4FC3C
:1007600021812302A4FC15452D36593579451536CE
:100770000144BC20910763D5870237470140835766
:10078000078093F70704E5DFA53D21616FF0FF9136
:10079000B386F40094223307F100850714A34DB704
:1007A0009C00A29783C507FC3745014013050580CF
:1007B000EF00F04E374701408357078093F7070853
:1007C000E5DF05041374F40F6DB781471146B306D6
:1007D000F5003387F500942218236397E600850718
:1007E000E397C7FE0545828001458280EFF25F8B6B
:1007F0000031C9476111102134216304F400238AB8
:10080000818803C711819307040193F7F70F894586
:1008100011E763F7F50021016FF03F89E3FDF5FE75
:10082000630AC7006DFAC547E317F4FE853423ACAD
:10083000A188D5B74D4693053500630CC42E636A75
:1008400086060D46630BC412636F86020546630C71
:10085000C4108947E311F4FCDDFEEFF07F9503C778
:10086000118105462386E1869387C18680B313579D
:100870008500A0A31377F70FB8B31375F50FC8A3BE
:100880002386C18849BFC547E302F4FA63E48720A1
:100890009147E312F4F8C1F22386E1869384C1867E
:1008A00080B00544A0A0EFF0FF94A8B02386818813
:1008B0009DB71306100F6307C410636D8604DD47F0
:1008C0006303F40E9307000FE317F4F4558F21F739
:1008D00083C64181938741819833A023A433238623
:1008E000018641569387C18690B31146B0A3B4B335
:1008F000D8A3C0B3220413740430E4A30547458C85
:100900002384E18A13044406EFF05F98229523A222
:10091000A18A11B71306300F6300C4146365C40EB7
:100920001306400FE319C4EE3031E316E6EE094733
:10093000E393E6EE58219307500AE31EF7EC138485
:10094000E1881C2093F7F70FE38707EC0145A388A4
:100950000180EFF09F8A230004002386018651570F
:100960009387C186DDA0E39806EA2386E186938714
:10097000C18680B32381070015BF0547E39DE6E8E4
:10098000283136C03335A000EFF07F8503C71181D1
:1009900082462386E1869387C18680B32381070040
:1009A0002386D1888DBDE39806E62386E18693876A
:1009B000C18680B32381070085472386F188A38EF3
:1009C000F18891BDE31907E41547E396E6E42AC0F0
:1009D00013854181DD3BE30005E482470544F8339C
:1009E000238EE188A3868188EFF05F8A85679387ED
:1009F00087383E9523A8A18823860186455793878B
:100A0000C18698B385BFE31807E09147E395F6E008
:100A10009387D1889C231384D18893F7F70FE38CB5
:100A200007DE138541815533E30705DE03C5C18920
:100A3000A388A180EFF06FFC03C71181230004009D
:100A40002386E1869387C186495798B3238107009F
:100A500005472386E188C1B33031E31EE6DA094752
:100A6000E39BE6DA58219307500AE316F7DA0544C8
:100A700023878188EFF09F8185679387873803C735
:100A800011813E9523A0A18A2386E1869387C186A2
:100A90004D5785BF83C7D18803C7E18893F7F70F08
:100AA0001377F70F19C393E727003EC2EFF00FFE4D
:100AB0009305803EEFF08FE083C611819247238635
:100AC000D1861384C186C94614B0B94634A03CB05F
:100AD0002AC0EFF02FF283C7118148A002475CB013
:100AE00083C741891375F70F93F7F70F7CA09357CE
:100AF0000701A303040093F7F70F1CA49357870083
:100B000093F7F70F1CB428A483D70184A1833CB4C6
:100B100083D7018493F7F70F5CA403C741819387C0
:100B2000418158B4983378A4B823BC3378B41CA856
:100B300005B70946E391C6CE34315C21B965A206FA
:100B4000D58F138587C1420541819385856793863B
:100B5000C18663EFA500B705002023A2F500238618
:100B6000E18680B22381060085472386F18865B13E
:100B70002386E18680B28547BCA2BCB2FDB7EFF206
:100B80002FD21384818A1C20711193F7F70F8DC324
:100B900083A7418A3EC0EFF06FEF82471D8D634906
:100BA0000500393E11C52300040085472386F188DE
:100BB0001384D1881C2093F7F70F81CF83A7018975
:100BC0003EC0EFF0AFEC82471D8D6344050023006B
:100BD00004001384E1881C2093F7F70F81CF83A7CB
:100BE000018A3EC0EFF08FEA82471D8D6344050005
:100BF0002300040083C7818493F7F70F91C71385FF
:100C0000C18423840184DD3683C7C18893F7F70F3D
:100C100089CBEFF0FFAA11C51385C1862386018811
:100C200039369387D18998231377F70F09C7238023
:100C30000700EFF02FE4EFF0EFDB19CDEFF00FE559
:100C400083A7818937070020032747001D8D63751F
:100C5000A7000145EFF0AFD811016FF00FC501A05B
:100C6000B707EFBE37E700E0938707083CC701A04E
:100C7000EFF20FC305451D2BB7F700E08847EF00E3
:100C8000D009EFF02FE41305803EEFF08FE0EFF096
:100C90006FDBEFF0DF92EFF0CFE6EFF05F9FEFF06A
:100CA0004FC9EFF0FF95E13DFDBFEFF26FBF371485
:100CB00002401C403707FFF8611193E717001CC082
:100CC0005C404145F98F5CC01C403707F7FE7D173B
:100CD000F98F1CC01C403707FCFF7D17F98F1CC023
:100CE0005C4041777D17F98F5CC0B7079F001CC43B
:100CF00015231C4C3706020093E707021CCCB717DC
:100D0000014003A70740938607401377F7F023A01D
:100D1000E74003A707401367070823A0E740894778
:100D20009CCA02C002C21C4C37070140A16693E76F
:100D300017001CCC5C43D58F5CC31C404167B716C1
:100D40000240D98F1CC009679C42F18F3EC2824786
:100D500085073EC0924781E78247E397E7FEB717D2
:100D600002409C431397E7006359070685473EC23C
:100D7000124785476310F706B72702409843C176AC
:100D8000FD16719B98C398431367170098C3B71754
:100D90000240D843D8C3D843758FD8C3D843C1665F
:100DA000558FD8C39843B7060001558F98C3984311
:100DB00093166700E3DD06FED843B7160240719B29
:100DC000D8C3D84313672700D8C32147DC42B18B6F
:100DD000E39EE7FE21016FF04FAD02C251BFEFF27B
:100DE0002FAC371702405C43370400209146B18B8B
:100DF000130484016385D700A1466382D704B73703
:100E00006E01938707601CC0B7160240DC420840A1
:100E1000918313F7F700B707002093878700BA97ED
:100E20008C23DC4293F5F50F93F707083357B50091
:100E300081E7EFF0AFA82A8718C06FF00FA75C43D7
:100E4000B777DC02938707C07DBF01A09701002020
:100E50009381C1A5138181F51305000A97F5FF1F42
:100E60009385451A17F6FF1F1306C61963FAC500C6
:100E70008322050023A0550011059105E3EAC5FE74
:100E8000171500001305458097F5FF1F93858517FB
:100E90001386818063FAC5008322050023A05500D4
:100EA00011059105E3EAC5FE138581809385418B89
:100EB0006377B500232005001105E36DB5FEB72269
:100EC000000093820288739002308D4273904280BA
:100ED00097F2FFFF9382021393E232007390523035
:100EE000EFF0BFDC970200009382C2D873901234F7
:100EF000730020305C413707F1FF1307F7EF7D8F58
:100F0000DC419441A207D58FD98F5CC11C4537F7CE
:100F1000F1FF1307D77FD4457D8F9C49D58F94452A
:100F20008606D58FD98F1CC55C55370710FF7D17F6
:100F30007D8FDC29FD1793F7F70FD207D98F5CD58A
:100F400082801C4589C593E717001CC58280F99BE8
:100F5000EDBF1C4593E787001CC5828008450D81C5
:100F6000058982801C4593E747001CC582801C458B
:100F700091C537075000D98F1CC582803707B0FF55
:100F80007D17F98FD5BFA54763F8B704138765FFB1
:100F9000931717008322C500BA971D433313F3003C
:100FA0001343F3FF33735300B397F600B3E76700BF
:100FB0005CC5994763E3C7047D16931726003E96E8
:100FC0005859FD47B397C70093C7F7FFF98FB395FB
:100FD000C500DD8D4CD98280939715000323050150
:100FE000AE971D473317F7001347F7FF33776700B6
:100FF000B397F6005D8F18C96DBFB14763E2C702B2
:101000006516931726003E961859FD47B397C700FB
:1010100093C7F7FFF98FB395C500DD8D0CD982809A
:101020004D161317260054553A96FD47B397C7003F
:1010300093C7F7FFF58FB395C500DD8D4CD5828042
:10104000684542054181828008416D8D3335A0009D
:101050008280B707674537270240938737125CC302
:10106000B797EFCD9387B79A5CC38280372702404A
:101070001C4B93E707081CCB8280372702405C4754
:101080000545858B91E748474189133515000D05C6
:101090008280EFF2EF802A84CD3785476318F50010
:1010A00019E0154529A0D13F7D14C5BF7DD86FE05B
:1010B000DFFFEFE2FFFEAA8437050B00D93F91471F
:1010C0006313F502372402401C4837050B0093E7F1
:1010D00027001CC844C81C4893E707041CC8553F98
:1010E0001C48F59B1CC86FE05FFCEFE27FFB7111B1
:1010F000AA8409652EC0713F91478245631EF500A1
:10110000372402401C48096593E717001CC88EA0CD
:1011100049371C48F99B1CC811016FE01FF9944521
:1011200093F7060193F2F60081C7DC41B3E2F200C7
:1011300083D3050093F7F30FA5C3032305006111C3
:1011400022C226C08147130480029304800405470D
:101150003316F70033F7C3006312E60293952700B6
:101160003D473317B7001347F7FF33736700B39555
:10117000B20033E36500639D860050C985072147AF
:10118000E397E7FC1244232065008244210182801A
:10119000E39696FE10C9DDB782800CC982804CC9E7
:1011A000828019C20CC982804CC9828023A6A18A80
:1011B000828083A6C18A854718216390F6021C317C
:1011C000639CD7023C219A0793E707F8B7E600E053
:1011D00093F7F70FBA962380F6408546935757004A
:1011E0003397E600544189CE938707048A07B7E610
:1011F00000E0B69798C38280EDF33C219A07F9B7D7
:1012000093870706B7E600E08A07B69798C30F10E2
:1012100000008280371702401C430E0593F777F0D9
:101220005D8D08C38280EFE2BFE7371702405C4361
:1012300091462A84B18B6385D700A1466380D70885
:10124000B7376E01938707601CC0B7160240DC42B7
:10125000918313F7F700B707002093870703BA9726
:101260008C23DC42184093F5F50F93F707083355AC
:10127000B70081E73A85EFE07FE448C008C448C47E
:10128000B7170240DC438D46AD83FD8B13D7370083
:101290008A07F18BD98F13F6370113F7370063F400
:1012A000C600138747FFB70700209387C701BA9787
:1012B0008C23EFE0BFE008C86FE03FDF5C43B77707
:1012C000DC02938707C049B799C5371702401C4F06
:1012D0005D8D08CF8280B7170240984F1345F5FF08
:1012E000798D88CF82801E2137370140130707C0D0
:1012F000C207C1836306E500370700406316E500B7
:10130000BA2193F7F7F8D98FFA2193F7F7CFC207ED
:10131000C183D98F1EA1DE215EB59E211EB5B737D0
:101320000140938707C06314F5009C251EB98547CB
:101330005EA982801E2189C593E717001EA18280C5
:10134000C207C183F99BC207C183CDBF5E2501C619
:10135000DD8D4EA5828093C5F5FFFD8DDDBF4EB1BD
:1013600082801E294A25ED8F4205418189C76D8DF6
:101370003335A00082800145828093C5F5FFC20508
:10138000C1810EA98280EFE2BFD11629F577FD1742
:10139000F58FF621DA252111D58F1EA95625FD7767
:1013A0009387379FF58FD6212A842EC0D58F962517
:1013B000D58FB625D58F5EA55E29C207C18393F769
:1013C000F7CF5D8F5AA94800B93DB74701409387D1
:1013D000078082456312F406C2475A24139517000A
:1013E0003E9542070E0541873E958C4163580704A0
:1013F0008605EFE0BFCC930540062AC0EFE01FCC86
:10140000824793144500930540063E85EFE0DFCD0B
:101410005E24C207C18763D507020E059305400607
:1014200013052503EFE09FC91D89C98CC204C18043
:1014300006A461016FE07FC7B24745B78A0555BF73
:1014400012059305400613052503EFE03FC73D89CC
:10145000E9BF91C55E250967D98F5EA582805A25AF
:10146000F977FD17F98FD5BF13F7F50F854715836A
:10147000B395B7006319F7009307C500984301CEF1
:10148000D98D8CC38280894693074501E318D7FE26
:1014900093070501E5B793C5F5FFF98DDDB793F522
:1014A000F51F4EA182804A211375F51F82800A2103
:1014B0006D8D3335A000828013F7F50F85461583B7
:1014C000B397B6006311D7025A25F98F1A21014547
:1014D0004207418381CB0545A181B315B5006D8FCE
:1014E0003335E000828089466314D7001A29F1BFA2
:1014F0005A29E1BF37070020130707041C439386CE
:10150000418B3E956369D500938681E563E5A6002E
:1015100008C33E858280FD57EDBF511197F7FF1F2D
:101520009387C7B822C2804326C006C41C5CAA8425
:101530008DEB61458120B737CDAB08DC9387E73071
:101540001CC1B7176DE6938747235CC1B7E7050059
:101550009387C7EE1CC5AD475EA50547814718C9EF
:101560005CC91C5CA240124484CB23AA07008244BD
:101570003101828097F7FF1F938747B3AA8588437D
:1015800009A0411126C293843500F19806C622C4F1
:10159000A104B14763F5F404B14463E4B4042AC080
:1015A000F9281387818014438247368439E01387F2
:1015B000C180184301EB3E8581453EC0692823A6C2
:1015C000A18082473E85A6853EC071207D57824717
:1015D0006314E506314798C33E855D2029A0E3DE0C
:1015E00004FAB1471CC10145B24022449244410172
:1015F00082801840058F634E07022D466376E60011
:1016000018C03A9404C031A058406392860223A4C3
:10161000E1803E85B5201305B400130744006199AD
:10162000B307E540F1D33E94098F18C075BFD8C207
:10163000CDB7A28640409DBF130435007198E303E7
:1016400085FCB305A4403E853EC031207D578247CE
:10165000E31AE5FA41B7511122C22A842E8523A844
:10166000018A06C4413DFD576317F5009387018B3E
:101670009C4391C31CC0A2401244310182808280ED
:041680008280000064
:1016840002000000102700000102030405060708F9
:101694000102030405060708006CDC0202040608C4
:1016A40004080C10081018201020304020406080DE
:1016B40001020304050607080102030405060708DE
:1016C4005C01002000000000000000000000000099
:1016D4000000000000000000000000000000000006
:1016E40000000000000000000000000000000000F6
:1016F40000000000000000000000000000000000E6
:1017040000000000000000000000000000000000D5
:1017140000000000000000000000000000000000C5
:101724000000000000000000440000200000000051
:00000001FF
