:100000006F00F03E000000003201000034010000EB
:1000100000000000000000000000000000000000E0
:1000200000000000000000000000000000000000D0
:100030003008000000000000EC0B00000000000091
:10004000EC0B0000EC0B0000EC0B0000EC0B0000D4
:10005000EC0B0000EC0B0000EC0B0000EC0B0000C4
:10006000EC0B0000EC0B0000EC0B0000EC0B0000B4
:10007000EC0B0000EC0B0000EC0B0000EC0B0000A4
:10008000AE090000EC0B0000EC0B0000540900006E
:10009000EC0B0000EC0B0000EC0B0000000000007B
:1000A000511126C022C206C4828282441244A24058
:1000B00031018280634E050263C305042E86AA8542
:1000C0007D5515C285466378B6006356C0000606A6
:1000D0008606E36CB6FE014563E4C500918D558D3F
:1000E00085820582F5FA82808682C93F2E858282CA
:1000F0003305A04063D70500B305B040C1B7B305D1
:10010000B0408682653F3305A0408282868263C705
:100110000500634905005D372E858282B305B04036
:10012000E35B05FE3305A040513F3305B0408282BA
:10013000000001A0B707EFBE37E700E0938707088C
:100140003CC701A0EFF2DFF57111374400082AC067
:10015000EF00504A130504C0EF00D04F824513054D
:1001600004C0EF00B052EF00904A11013DBFB74705
:10017000000803C507C01307D00F1375F50F9307C9
:10018000F5FF93F7F70F6373F70001458280EFF2F5
:100190003FF1B7F7FF1F83A6877E03A7C77E93872C
:1001A000418113D68601C18294B39356870141835E
:1001B00090A3B4A3B8B3653F2388A180FDB5EFF247
:1001C0003FEE61110545EF00F057B7F700E08847B3
:1001D000EF106011EF10800BEF00806CEF00B01F8C
:1001E0001305803EEF00206AEF00E0654D37EF0019
:1001F00050127D28EF00D01583C7418793F7F70F82
:10020000A9C783A701873EC00D2582471D8D634E78
:1002100005023707002083A7418A032747013EC212
:100220003AC02125924702471D8D6360E50237459C
:1002300001409305000213050580EF10C00011E591
:10024000238A018685472386F18683C7818193F7B8
:10025000F70F99CB83A7C1813EC0C12B82471D8D6B
:1002600063440500238C018083C7918193F7F70FC6
:1002700099CB83A781843EC04D2B82471D8D63445B
:100280000500A38C018083C7018293F7F70F91C704
:100290001385818223800182E12283C7C18693F77F
:1002A000F70FB9DB1385C18423860186192AA9B704
:1002B000EFF21FDF1301C1FD854513050021EF009B
:1002C000305AC1478A85371501407C8002C4EF004F
:1002D000303F37240140B7070E003ECC6C00854705
:1002E000130504402300F10202C602C802CA02CE6E
:1002F000EF00701A9D460546894513050440EF003E
:10030000B022854513050440EF00D01D13050440BD
:10031000EF00501E930404402685EF00501E6DFD33
:1003200013050440EF00301E13014102BDBBEFF284
:100330003FD7372501408545130505403724014047
:10034000EF00101D9304044089452685EF00F02935
:1003500065DD13050440EF00D02881BBC1676976D5
:100360008146FD17050613F7F60F6364B7003E8557
:1003700082803307D5001823B98F214793F21700E5
:1003800013D31700B287639302008147B347F3008A
:100390007D17C2071377F70FC1836DF38506E1B7A9
:1003A00081471146B306F5003387F50094221823E0
:1003B0006397E6008507E397C7FE05458280014500
:1003C0008280EFF2FFCD1E21202139717C80AA842A
:1003D00040818D471387D7FF1377F70F6365870435
:1003E0009305340093F5F50F0A858D3F9C003E94EC
:1003F000A301A4FC21812302A4FC15456921EF007F
:100400002074794549210144BC20910763D58702B6
:10041000374701408357078093F70704E5DFEF0074
:100420002073216159B1B386F40094223307F1009F
:10043000850714A345B79C00A29783C507FC3745E1
:10044000014013050580EF00105F374701408357D7
:10045000078093F70708E5DF05041374F40F6DB701
:10046000EFF21FC4AA841C21003138219305350006
:1004700003C50181711121ED1306000F6306C41637
:100480001306100F6305C41A1306200F6317C40662
:10049000ADE78D4763F3E706138481811C2093F752
:1004A000F70FA1CF13854181E53D21C903C5118215
:1004B0002388A180413903C7018123000400938769
:1004C000C18498A3495798B323810700F9A83686B9
:1004D0009306040193F6F60F894563F0D502630392
:1004E000F50081EF8D466303D40A63EA86008544F4
:1004F0006302940609476308E40611017DB6930779
:10050000300F6308F40A9307400FE318F4FE1384D6
:1005100091811C2093F7F70FEDD38546E3FFE6FCAE
:10052000BC30E39CA7FCD8209307500AE317F7FCE4
:100530000145238801803931230004009387C18459
:1005400023800700515798B32381070085462386EF
:10055000D18665B71387C1841CA300B323010700AC
:100560002386818659BF3EC0D93382471387C18411
:100570001CA300B39357850020A393F7F70F3CB358
:100580001375F50F48A32386918685BF3DD7A83004
:100590003EC07D1513351500EF00A0648247138718
:1005A000C1841CA300B32301070005472386E1860D
:1005B000A9B70544E373E4F4BC30E390A7F4D82072
:1005C0009307500AE31BF7F2A38C8180B92C85674F
:1005D000938787383E9503C7018123A4A18493871D
:1005E000C18498A34D5769A8E39907F083C6418158
:1005F000938741819833A023A4339387C1842380B8
:100600000700415690B31146B0A3B4B3D8A3C0B30A
:10061000220413740430E4A30547458C238AE18641
:10062000130444061924229523A8A186F9B5E3965C
:1006300007EC9147E3F3E7EC138541819533E30E33
:1006400005EA81471387418291463386F4002C32B4
:100650003306F70085070CA2E399D7FEF83005446E
:10066000A380E182238C8180C922856793878738A4
:100670003E9523AEA1809387C18423800700455710
:1006800098B323810700E9BDEFF29FA13714024020
:100690001C403707FFF8611193E717001CC05C404E
:1006A0004145F98F5CC01C403707F7FE7D17F98F75
:1006B0001CC01C403707FCFF7D17F98F1CC05C4035
:1006C00041777D17F98F5CC0B7079F001CC4EF000E
:1006D000F00D1C4C3706020093E707021CCCB7173D
:1006E000014003A70740938607401377F7F023A044
:1006F000E74003A707401367070823A0E74089479F
:100700009CCA02C002C21C4C37070140A16693E795
:1007100017001CCC5C43D58F5CC31C404167B716E7
:100720000240D98F1CC009679C42F18F3EC28247AC
:1007300085073EC0924781E78247E397E7FEB717F8
:1007400002409C431397E7006359070685473EC262
:10075000124785476310F706B72702409843C176D2
:10076000FD16719B98C398431367170098C3B7177A
:100770000240D843D8C3D843758FD8C3D843C16685
:10078000558FD8C39843B7060001558F98C3984337
:1007900093166700E3DD06FED843B7160240719B4F
:1007A000D8C3D84313672700D8C32147DC42B18B95
:1007B000E39EE7FE21016FF05F8F02C251BFEFF2AF
:1007C0003F8E371702405C43370400209146B18BBF
:1007D000130404016385D700A1466382D704B737A9
:1007E0006E01938707601CC0B7160240DC420840C8
:1007F000918313F7F700B707002093870700BA9794
:100800008C23DC4293F5F50F93F707083357B500B7
:1008100081E7EFF0BF8A2A8718C06FF01F895C4319
:10082000B777DC02938707C07DBF03A581878280ED
:10083000B7F700E023A20700938781879843050755
:1008400098C373002030EFF2BF85953FB7070020B3
:1008500003A507019305803EEFF05F86B7F700E040
:100860007D1588CB23A407003D4798C323A207002A
:100870009307800873A00730B7E700E0056723A05F
:10088000E7106FF09F8293175500898F8A07AA9708
:100890009A0701476393E700828001000507DDBFE7
:1008A000EFF21F8011651301C1FD85451305050297
:1008B00002C402C602C802CA02CC02CE02D002C0E2
:1008C00002C2EF00E079370701405C43B706000140
:1008D00037140140D58F5CC3930700027C848D4799
:1008E0003EC62C00E147130504403EC8D12B9307B8
:1008F00000047C842C009147130504403EC8C923A2
:10090000956737440140938707B03ECA4C08B70744
:100910000C00130504803ECE02CC23100102EF0030
:10092000100005469305505213050480EF00500D4A
:10093000930700127C8085475C810A8585473EC20B
:100940002925854513050480EF00300A1301410273
:100950006FF0AFF5130141FD22CC373401402ACAB4
:100960002EC8130504C0854506D416D21AD01ECE53
:1009700032C636C43AC23EC0EF00207811C9854560
:10098000130504C0EF00E0782380018A238E0186DE
:100990006244A25092520253F2435245C24532463B
:1009A000A246124782471301C1027300203013018F
:1009B000C1FC22D0374401402ACC2ECA1305048042
:1009C0009305505206D816D61AD41ED226CE32C857
:1009D00036C63AC43EC2EF00B00763000510B13519
:1009E00023A2A18A13050480EF007005AA8437357D
:1009F00001408145130505C0EF00E06F9386018A31
:100A00009C227D461387018A1384C1876360F604A4
:100A10009C2293F4F40F93F7F70F138617001376C5
:100A2000F60F90A213860188B29784A39C228D456D
:100A300093840188639FF5003C221306000295070A
:100A400093F7F70F1CA01C206375F60023800600A7
:100A500059A01C2093F7F70FC9C314231C2093F748
:100A6000F70F639CD7061C2013850188F917A697FA
:100A700094231C20FD17A69790230C202206F9151D
:100A8000558E93F5F50F32C0EFF05F8D0246138758
:100A9000018A6310A6049C209385818293F7F70F47
:100AA0002384F1829C30938681826D4593F7F70F02
:100AB0009CB1BC2093F7F70FBCA18147AC2213F384
:100AC000F70F6374B300639AA702F2AE85462380E2
:100AD000D18223000700230004000254C250B25206
:100AE00022539253F2446245D2454246B2462247CF
:100AF0009247130141037300203093853700A69578
:100B00008C213383F600850793F5F50FA301B3001D
:100B100075B7EFF2EFD851118545414591238547CF
:100B20007C80C1473EC48A858D47371501403EC24F
:100B3000412E854537150140212131016FF0EFD657
:100B4000EFF20FD6854537150140CD2E6FF0EFD56A
:100B5000EFF20FD5854537150140DD266FF0EFD454
:100B6000EFF20FD42A8405655111854513050580E0
:100B7000C529B131B707002003A507019305803EC1
:100B8000EFF0CFD37D154205418111E005447D147E
:100B900060823734014068808A85130504C02311C0
:100BA00001002313010023040100D129130504C00F
:100BB000854585230546130504C0854525238545C0
:100BC000130504C02123B7E700E0214723A2E71063
:100BD00031016FF08FCDEFF2AFCC094551376FF097
:100BE000CFCC9387818A88A39C23828001A0970120
:100BF0000020938121CB138101F61305000A97F59C
:100C0000FF1F9385254017F6FF1F1306A63F63FAC3
:100C1000C5008322050023A0550011059105E3EAD4
:100C2000C5FE171500001305E58297F5FF1F938594
:100C3000653D1386818063FAC5008322050023A0E9
:100C4000550011059105E3EAC5FE13858180938562
:100C5000818B6377B500232005001105E36DB5FE98
:100C6000B722000093820288739002308D42739005
:100C7000428097F2FFFF9382E23893E23200739052
:100C80005230EFF07FA097F2FFFF93828253739070
:100C90001234730020305C413707F1FF1307F7EF80
:100CA0007D8FDC419441A207D58FD98F5CC11C4553
:100CB00037F7F1FF1307D77FD4457D8F9C49D58F38
:100CC00094458606D58FD98F1CC55C55370710FF14
:100CD0007D177D8FDC29FD1793F7F70FD207D98F8A
:100CE0005CD582801C4589C593E717001CC58280AE
:100CF000F99BEDBF1C4593E787001CC58280084522
:100D00000D81058982801C4593E747001CC58280C0
:100D10001C4591C537075000D98F1CC58280370705
:100D2000B0FF7D17F98FD5BFA54763F8B7041387C8
:100D300065FF931717008322C500BA971D4333132D
:100D4000F3001343F3FF33735300B397F600B3E795
:100D500067005CC5994763E3C7047D1693172600B7
:100D60003E965859FD47B397C70093C7F7FFF98FD1
:100D7000B395C500DD8D4CD9828093971500032370
:100D80000501AE971D473317F7001347F7FF337779
:100D90006700B397F6005D8F18C96DBFB14763E276
:100DA000C7026516931726003E961859FD47B3975C
:100DB000C70093C7F7FFF98FB395C500DD8D0CD938
:100DC00082804D161317260054553A96FD47B39767
:100DD000C70093C7F7FFF58FB395C500DD8D4CD5E0
:100DE0008280684542054181828008416D8D33359E
:100DF000A0008280B70767453727024093873712E4
:100E00005CC3B797EFCD9387B79A5CC382803727CF
:100E100002401C4B93E707081CCB82803727024017
:100E20005C470545858B91E7484741891335150097
:100E30000D058280EFF2CFA62A84CD37854763184F
:100E4000F50019E0154529A0D13F7D14C5BF7DD817
:100E50006FF0AFA5EFF2CFA4AA8437050B00D93FFE
:100E600091476313F502372402401C4837050B00F5
:100E700093E727001CC844C81C4893E707041CC814
:100E8000553F1C48F59B1CC86FF02FA2EFF24FA1F5
:100E90007111AA8409652EC0713F91478245631E76
:100EA000F500372402401C48096593E717001CC869
:100EB0008EA049371C48F99B1CC811016FF0EF9EAA
:100EC000944593F7060193F2F60081C7DC41B3E243
:100ED000F20083D3050093F7F30FA5C303230500A6
:100EE000611122C226C0814713048002930480044A
:100EF00005473316F70033F7C3006312E6029395F4
:100F000027003D473317B7001347F7FF33736700D8
:100F1000B395B20033E36500639D860050C9850731
:100F20002147E397E7FC1244232065008244210116
:100F30008280E39696FE10C9DDB782800CC982805C
:100F40004CC9828023A6A18A828083A6C18A854754
:100F500018216390F6021C31639CD7023C219A074A
:100F600093E707F8B7E600E093F7F70FBA96238008
:100F7000F6408546935757003397E600544189CE93
:100F8000938707048A07B7E600E0B69798C3828084
:100F9000EDF33C219A07F9B793870706B7E600E01F
:100FA0008A07B69798C30F10000082803717024057
:100FB0001C430E0593F777F05D8D08C38280EFF236
:100FC0002F8E371702405C4391462A84B18B63858C
:100FD000D700A1466380D708B7376E0193870760B3
:100FE0001CC0B7160240DC42918313F7F700B70725
:100FF00000209387C702BA978C23DC42184093F5F0
:10100000F50F93F707083355B70081E73A85EFF0FE
:10101000EF8A48C008C448C4B7170240DC438D4675
:10102000AD83FD8B13D737008A07F18BD98F13F669
:10103000370113F7370063F4C600138747FFB7077C
:10104000002093878701BA978C23EFF02F8708C879
:101050006FF0AF855C43B777DC02938707C049B771
:1010600099C5371702401C4F5D8D08CF8280B71796
:101070000240984F1345F5FF798D88CF82801E215D
:1010800037370140130707C0C207C1836306E50075
:10109000370700406316E500BA2193F7F7F8D98FB8
:1010A000FA2193F7F7CFC207C183D98F1EA1DE21A2
:1010B0005EB59E211EB5B7370140938707C0631404
:1010C000F5009C251EB985475EA982801E2189C531
:1010D00093E717001EA18280C207C183F99BC20754
:1010E000C183CDBF5E2501C6DD8D4EA5828093C52F
:1010F000F5FFFD8DDDBF4EB182801E294A25ED8FA3
:101100004205418189C76D8D3335A000828001453C
:10111000828093C5F5FFC205C1810EA98280EFE2EE
:101120003FF81629F577FD17F58FF621DA252111FD
:10113000D58F1EA95625FD779387379FF58FD6212A
:101140002A842EC0D58F9625D58FB625D58F5EA53E
:101150005E29C207C18393F7F7CF5D8F5AA9480074
:10116000B93DB74701409387078082456312F40673
:10117000C2475A24139517003E9542070E05418732
:101180003E958C41635807048605EFE03FF39305D5
:1011900040062AC0EFE09FF2824793144500930572
:1011A00040063E85EFE05FF45E24C207C18763D549
:1011B00007020E059305400613052503EFE01FF017
:1011C0001D89C98CC204C18006A461016FE0FFEDD6
:1011D000B24745B78A0555BF12059305400613056A
:1011E0002503EFE0BFED3D89E9BF91C55E250967A5
:1011F000D98F5EA582805A25F977FD17F98FD5BF63
:1012000013F7F50F85471583B395B7006319F700FA
:101210009307C500984301CED98D8CC3828089463F
:1012200093074501E318D7FE93070501E5B793C57A
:10123000F5FFF98DDDB793F5F51F4EA182804A21A8
:101240001375F51F82800A216D8D3335A0008280D1
:1012500013F7F50F85461583B397B6006311D702D0
:101260005A25F98F1A2101454207418381CB054553
:10127000A181B315B5006D8F3335E00082808946BA
:101280006314D7001A29F1BF5A29E1BFEFE25FE1E9
:10129000B707002003A50701B7157A00938505203D
:1012A000EFE0DFE11375F50F2389A18A931755004D
:1012B000898F8A073E950E052398A18A6FE0FFDE8D
:1012C000370700201307C7031C439386818B3E9585
:1012D0006369D500938601E663E5A60008C33E85F1
:1012E0008280FD57EDBF511197F7FF1F938787DB72
:1012F00022C2804326C006C41C5CAA848DEB6145D3
:101300008120B737CDAB08DC9387E7301CC1B71716
:101310006DE6938747235CC1B7E705009387C7EE67
:101320001CC5AD475EA50547814718C95CC91C5C53
:10133000A240124484CB23AA070082443101828058
:1013400097F7FF1F938707D6AA85884309A0411105
:1013500026C293843500F19806C622C4A104B14781
:1013600063F5F404B14463E4B4042AC0F928138794
:10137000818014438247368439E01387C180184343
:1013800001EB3E8581453EC0692823A6A1808247A6
:101390003E85A6853EC071207D5782476314E506D1
:1013A000314798C33E855D2029A0E3DE04FAB147AA
:1013B0001CC10145B2402244924441018280184040
:1013C000058F634E07022D466376E60018C03A94F7
:1013D00004C031A058406392860223A4E1803E8578
:1013E000B5201305B400130744006199B307E54025
:1013F000F1D33E94098F18C075BFD8C2CDB7A2866D
:1014000040409DBF130435007198E30385FCB3058C
:10141000A4403E853EC031207D578247E31AE5FA5D
:1014200041B7511122C22A842E8523AA018A06C4FB
:10143000413DFD576317F5009387418B9C4391C352
:101440001CC0A24012443101828082808280000050
:101450000102030405060708010203040506070844
:10146000006CDC02020000000204060804080C10F4
:101470000810182010203040204060800102030432
:1014800005060708010203040506070858010020A5
:10149000000000000000000000000000000000004C
:1014A000000000000000000000000000000000003C
:1014B000000000000000000000000000000000002C
:1014C000000000000000000000000000000000001C
:1014D000000000000000000000000000000000000C
:1014E00000000000000000000000000000000000FC
:0814F000400000200000000094
:00000001FF
